:03000000021602E3
:0C160200787FE4F6D8FD758121021649BE
:1019E4002025640050726F6A2042616E6120312E9E
:0219F4003000C1
:041A2600821000002A
:1019CE00758920758DFD758BFDD28EC29FD29ED2EC
:0619DE009CD2AFD2AC2246
:10183F00784774FFF2087419F20874E4F208EEF2B4
:10184F0008EFF27BFE7A007934120F00E4FFFE748A
:10185F00342FF8E2600EF5993099FDC2990FBF0051
:0C186F00010E80EB75990A3099FDC299BA
:01187B00224A
:081A1E008F993099FDC2992255
:10131200E47820F208F27828F21219CE1219F67F38
:10132200647E0012194212142E1219237BFF7A19BD
:1013320079E87D04E4FF1217F17811E22401F21832
:10134200E23400F2E2FE08E2FF7C007D03120DFCB3
:101352007810ECF208EDF2C39402EC6480948050B1
:101362004A1808E27828F2FF1215707820EEF20887
:10137200EFF2C39401EE64809480500618E4F20800
:1013820004F2D37821E294FE18E26480948040064D
:10139200E4F20874FEF27820E2FE08E2FF78100818
:1013A200E225E02400F8EEF208EFF27811E264029E
:1013B200700218E2706C12177D7820EEF208EFF2DC
:1013C2007C007D0A120DFC7820EEF208EFF2E22496
:1013D20019F218E23400F208E225E0FF18E233FEC7
:1013E200F208EFF2C374FF9FFFE49EFE18F208EFCB
:1013F200F2C39401EE64809480500618E4F208046B
:10140200F2D37821E294FE18E2648094804006E4EC
:10141200F20874FEF27820E2FF08E27804CFF208C4
:0C142200EFF27FE87E0312194202133B38
:0300230002168E34
:10168E00C0E0C0F0C083C082C0D075D000C000C022
:0D169E0001C002C003C004C005C006C007A3
:1016AB00309839C2987833E599F2E2FFC36480949D
:1016BB00B0401AD3EF648094B95012E224D0F2E216
:1016CB0025E02400F8E2FE08E2FF12183F7833E22F
:1016DB00FFB44C02D285EFB46C02C285309902C2C2
:0116EB009965
:1016EC00D007D006D005D004D003D002D001D00052
:0B16FC00D0D0D082D083D0F0D0E032FC
:10194200D3EF9400EE940040147D6E7C00ED1D7088
:0D195200011CED4C70F7EF1F70E61E80E3E6
:01195F002265
:1018FE00D3EF9400EE6480948040197D6E7C00C21C
:10190E009000D290ED1D70011CED4C70F2EF1F7027
:04191E00DF1E80DC6C
:0119220022A2
:02157000AD07C5
:10157200EDFB3395E0FAEBAE027807C333CE33CE00
:10158200D8F97807CEA2E713CE13D8F84E24FF92EB
:1015920095EBAE027806C333CE33CED8F97807CEB8
:1015A200A2E713CE13D8F84E24FF9296AF05EF337D
:1015B20095E0FEEF7805C333CE33CED8F97807CE67
:1015C200A2E713CE13D8F84E24FF9297C2940000DC
:1015D20000D294C293000000D2930000D2917F0205
:1015E2007E001218FEC291002092097F027E001234
:0F15F20018FE80F47F057E001218FEAFA07E0069
:0116010022C6
:0B1A1300EF1FAC0670011E4C70F622A5
:1018AF00E4FDD2867F02FE121A13C2867F507E009D
:1018BF00121A13D2867F0E7E00121A13A286E433F9
:0818CF00FD7F147E00021A13D4
:10196000E4FB7D08C286EBC313FBD28630860344BA
:0D19700080FB7F087E00121A13DDE9AF0333
:01197D002247
:02199A00AD0797
:10199C007B08C286ED1392867F0A7E00121A13D240
:0719AC0086EDC313FDDBEB28
:0119B3002211
:10177D00E4FAFFFDFC7829120E4C0000000012184F
:10178D00AF7FCC12199A7F4412199A7F147E0012E2
:10179D001A131218AF7FCC12199A7FBE12199A1212
:1017AD001960AA07121960AD07EDFCEAFDE4120AF3
:1017BD0041E4FBFA7980783D1209367829120E4002
:1017CD00E4FFFE7D207C417829E2FB08E2F908E286
:1017DD00FA08E2CBF8120936E4FBFAF9783F120861
:0417ED0045020A7A2D
:100026000000000000000000002F00000000070094
:10003600070000147F147F1400242A7F2A1200620E
:1000460064081323003649552250000005030000BA
:1000560000001C224100000041221C000014083E42
:1000660008140008083E0808000000A06000000808
:10007600080808080000606000000020100804025C
:10008600003E5149453E0000427F4000004261511A
:100096004946002141454B31001814127F100027B4
:1000A60045454539003C4A49493000017109050377
:1000B60000364949493600064949291E00003636A8
:1000C600000000005636000000081422410000140B
:1000D60014141414000041221408000201510906E8
:1000E60000324959513E007C1211127C007F494969
:1000F6004936003E41414122007F4141221C007F9A
:1001060049494941007F09090901003E4149497AA7
:10011600007F0808087F0000417F41000020404121
:100126003F01007F08142241007F40404040007F8D
:10013600020C027F007F0408107F003E4141413ED1
:10014600007F09090906003E4151215E007F091919
:1001560029460046494949310001017F0101003F16
:100166004040403F001F2040201F003F4038403F96
:1001760000631408146300070870080700615149FA
:10018600454300007F41410000552A552A5500008D
:1001960041417F000004020102040040404040400B
:1001A600000001020400002054545478007F4844A3
:1001B600443800384444442000384444487F0038DA
:1001C6005454541800087E0901020018A4A4A47C03
:1001D600007F080404780000447D400000408084CD
:1001E6007D00007F102844000000417F4000007C15
:1001F60004180478007C0804047800384444443821
:1002060000FC242424180018242418FC007C08046C
:10021600040800485454542000043F444020003C45
:100226004040207C001C2040201C003C4030403CCC
:10023600004428102844001CA0A0A07C004464545C
:100246004C441414141414140000000000000000A0
:100256000000000000000000000000F800000000A0
:10026600000000333000000000100C06100C0600E1
:10027600000000000000000040C07840C078400048
:10028600043F04043F040400007088FC08300000AA
:10029600001820FF211E0000F008F000E018000002
:1002A60000211C031E211E0000F0088870000000BB
:1002B6001E2123241927211010160E00000000000D
:1002C6000000000000000000000000E0180402002A
:1002D600000000071820400000020418E00000009B
:1002E6000040201807000000404080F08040400099
:1002F6000202010F01020200000000F000000000EF
:100306000101011F010101000000000000000000C2
:1003160080B0700000000000000000000000000037
:1003260000010101010101010000000000000000C0
:10033600003030000000000000000000806018045B
:10034600006018060100000000E010080810E00038
:10035600000F102020100F00001010F80000000001
:100366000020203F20200000007008080888700048
:1003760000302824222130000030088888483000C8
:100386000018202020110E000000C02010F80000E8
:1003960000070424243F240000F808888808080081
:1003A6000019212020110E0000E010888818000096
:1003B600000F112020110E0000380808C838080068
:1003C6000000003F000000000070880808887000E8
:1003D600001C222121221C0000E010080810E00069
:1003E6000000312222110F00000000C0C0000000F2
:1003F6000000003030000000000000800000000017
:10040600000080600000000000008040201008000E
:1004160000010204081020004040404040404000D7
:1004260004040404040404000008102040800000B2
:100436000020100804020100007048080808F000B7
:100446000000003036010000C030C828E810E00087
:100456000718272423140B000000C038E000000012
:10046600203C23020227382008F88888887000007C
:10047600203F202020110E00C03008080808380050
:10048600071820202010080008F808080810E000C7
:10049600203F202020100F0008F88888E808100068
:1004A600203F20202320180008F88888E80810003C
:1004B600203F200003000000C03008080838000074
:1004C60007182020221E020008F808000008F80875
:1004D600203F210101213F20000808F808080000FC
:1004E6000020203F2020000000000808F80808002F
:1004F600C08080807F00000008F888C028180800A7
:10050600203F20012638200008F8080000000000DF
:10051600203F20202020300008F8F800F8F80800D6
:10052600203F003F003F200008F830C00008F808D0
:10053600203F200007183F00E01008080810E000E0
:100546000F10202020100F0008F808080808F000F7
:10055600203F210101010000E01008080810E0001A
:100566000F18242438504F0008F8888888887000AF
:10057600203F2000030C302000708808080838004F
:100586000038202121221C00180808F80808180045
:100596000000203F2000000008F808000008F808C6
:1005A600001F202020201F000878880000C8380877
:1005B600000007380E010000F80800F80008F800EF
:1005C600033C0700073C0300081868808068180889
:1005D60020302C03032C30200838C800C838080007
:1005E6000000203F2000000010080808C838080056
:1005F6002038262120201800000000FE02020200FA
:100606000000007F40404000000C30C000000000A9
:10061600000000010638C00000020202FE000000D1
:10062600004040407F000000000004020202040077
:1006360000000000000000000000000000000000B4
:10064600808080808080808000020204000000009C
:100656000000000000000000000080808080000094
:100666000019242222223F2008F800808000000082
:10067600003F112020110E00000000808080000045
:10068600000E112020201100000000808088F80054
:10069600000E112020103F20000080808080000086
:1006A600001F222222221300008080F088888818EA
:1006B6000020203F202000000000808080808000F5
:1006C600006B94949493600008F80080808000008A
:1006D600203F210000203F20008098980000000065
:1006E6000020203F20200000000000809898000095
:1006F60000C08080807F000008F8000080808000B5
:10070600203F24022D302000000808F800000000D9
:100716000020203F20200000808080808080800094
:10072600203F20003F20003F808000808080000026
:10073600203F210000203F200000808080800000B4
:10074600001F202020201F008080008080000000E5
:1007560080FFA12020110E00000000808080800014
:10076600000E112020A0FF80808080008080800005
:1007760020203F2120000100000080808080800032
:100786000033242424241900008080E080800000A7
:100796000000001F202000008080000000808000F4
:1007A600001F202020103F20808080000080808055
:1007B60000010E30080601008080008000808080E5
:1007C6000F300C030C300F0000808000808080000A
:1007D6000020312E0E312000808080000080808035
:1007E60080818E70180601000080808080808000E5
:1007F6000021302C2221300000000000807C020203
:1008060000000000003F404000000000FF00000024
:1008160000000000FF0000000002027C80000000D3
:100826000040403F000000000006010102020404EF
:080836000000000000000000BA
:1019B400EF4E60157D087C07ED1DAA0470011C4ADA
:0919C40070F6EF1F70EA1E80E7C7
:0119CD0022F7
:0A187C00121886E4FF1218867F1090
:10188600ED6004D2838002C283C284E4FEC280EF8C
:1018960030E704D2818002C281D280EF25E0FF0EBC
:0818A600EEB408E9D284D283FC
:0118AE002217
:10000300AC07ED24B0FFE4FD121886EC54F0C454A1
:100013000F4410FF121886EC540F4401FF02188698
:1019F600E4FD7F8D1218867F141218867FAF0218B9
:011A06008659
:0C1A0700E4FD7F8D1218817FAE0218866E
:10192300E4FCEC24B0FFE4FD12187CE4FB7D01E44D
:0E193300FF1218860BEBB480F40CECB408E441
:011941002283
:06170700AA07A905AF03CB
:10170D00E4FCEF24E0FBEAD3947F4004E4FA0909FA
:10171D00AF02AD01120003E4FC75F010EBA42CF543
:10172D0082E435F0F583E582244EF582E5833402BB
:10173D00F583E493FF7D011218860CECB408DAAF43
:10174D0002E904FD120003E4FC75F010EBA42CF586
:10175D0082E435F0F583E5822456F582E583340283
:10176D00F583E493FF7D011218860CECB408DA22A0
:06197E007816EFF2A90546
:101984007F017E00AD0119ED600B7816E2FD7C004D
:05199400120D9580EF2B
:01199900222B
:0D14D4007817EFF208EDF208EAF208EBF2EB
:1014E100E4781FF2781DF2781BE2FF781DE2FEC35B
:1014F1009F507BC3EF9E14FD7F0A12197E7819E27B
:10150100FC08E2FDCFCDCFCECCCE120DA77C007D65
:101511000A120DA7781EEDF208E2702B781BE21477
:10152100FF781DE2FEC39F501E08E27015781CE291
:10153100C3138EF0A4FF7817E22FFF08E2FD7B2092
:101541008021781F7401F2781CE2C313FF08E2FEC8
:10155100EF8EF0A4FF7817E22FFF08E2FD781EE27C
:0E1561002430FB121707781DE204F20214E892
:01156F002259
:1017F1007829EFF208EDF208EBF208EAF208E9F2D3
:10180100E408F2782BE2FB08E2FA08E2F908E2F5D3
:1018110082758300120D56FB60237829E2FF08E2EE
:10182100FD12170718E22408F2E2D394784007E486
:0D183100F208E22402F2782EE204F280C6F2
:01183E002287
:10142E00D2827F647E001219B4C2827F647E001263
:10143E0019B4D282E4FD7FAE12187C7F401218865A
:10144E007F811218867FCF1218867FA11218867F91
:10145E00C81218867FA61218867FA81218867F3F9C
:10146E001218867FD3121886E4FF1218867FD512C3
:10147E0018867F801218867FD91218867FF112186F
:10148E00867FDA1218867F121218867FDB12188674
:10149E007F401218867F201218867F021218867FD0
:1014AE008D1218867F141218867FA41218867FA6B6
:1014BE001218867FAF1218867FAF12188612192364
:0614CE00E4FDFF02000333
:10083E00020AE6E86480F8E933E83360110460F0F8
:10084E00ED33EC337009E8FCE9FDEAFEEBFF220420
:10085E0060DED3EB9FEA9EE99DE8C2E78CF0C2F71B
:10086E0095F0400CE8CCF8E9CDF9EACEFAEBCFFBE7
:10087E00120AB185D0F05804700320D5B3E8047085
:10088E00075002B2D5020AF092D5EC0460F7E4CC20
:10089E00C0E0C398F8603B94186008400DD0E0FBB0
:1008AE00020AC8E4FBFAC9FC8028E830E406E4C971
:1008BE00FBE4CAFCE830E305E4C9CACBFCE8540704
:1008CE006010F8C3E913F9EA13FAEB13FBEC13FC0F
:1008DE00D8F130F52FC3E49CFCEF9BFFEE9AFEEDB2
:1008EE0099FDD0E0FBEF4E4D4C701222DB03020A55
:1008FE00EDEC2CFCEF33FFEE33FEED33FDED30E788
:10090E00EB020AC8EF2BFFEE3AFEED39FDD0E0FB0D
:10091E0050130BBB0003020AF0ED13FDEE13FEEFB6
:08092E0013FFEC13FC020AC8E0
:10093600EC4D6011E8497017ED33EC3304600DE4BB
:10094600FCFFFEFD22E933E8330470F8020AE612E2
:100956000AB158046009E4CC2481500628500902E3
:100966000AF0284003020AEDC0E0EB4A7044B98061
:1009760006D0E0FB020ADCEF4E701CBD8008EBFFE0
:10098600EAFEE9FD80EBE98DF0A4FEE5F0020A1F20
:10099600E9CDF9EAFEEBFFEF89F0A4FCE5F0CE899C
:1009A600F0A42EFFE435F0CD89F0A42DFEE435F059
:1009B6008067EF4E7005BD80D780C3EF8BF0A4AC87
:1009C600F0EE8BF0A42CFCE435F0F8EF8AF0A42CC2
:1009D600E5F038FCE433CB8DF0A42CFCE5F03BF8D5
:1009E600EE8AF0A42CFCE5F038F8E433CF89F0A4C5
:1009F6002CFCE5F038CF3400CE89F0A42FFFE5F0CB
:100A06003EFEE433C98DF0A42EFEE5F039CD8AF022
:100A1600A42FFFE5F03EFEE43DFD33D0E0FB50079A
:100A26000BBB000F020AF0EC2CFCEF33FFEE33FE9B
:060A3600ED33FD020AC8C9
:100A3C0075F020800E75F010800575F0087D007E35
:100A4C00007F003392D530D503120E32EC334010B8
:100A5C00EF33FFEE33FEED33FDEC33FCD5F0ED223E
:0E0A6C00E5F0247EA2D513CC92E7CDCEFF227A
:100A7A00EDD2E7CD33EC3392D524814006E4FFFE74
:100A8A00FDFC22FCE4CFCECDCC24E0501174FF80D3
:100A9A00EDC3CC13CCCD13CDCE13CECF13CF047070
:070AAA00F030D5DE020E3230
:100EA400E5082447F8E20508227844300702784729
:100EB400E475F001120E65020D3D2000EB7F2ED289
:100EC400008018EF540F2490D43440D4FF30040B26
:100ED400EF24BFB41A0050032461FFE50960021532
:100EE40009050CE50C7002050B30070D7844E47518
:100EF400F001120E65EF020D830218D77403D207B6
:100F04008003E4C207F5087844120E75E4F509F588
:100F14000BF50CE50960077F20120EDF80F5750ADA
:100F2400FFC201C200C202C203C205C206C2081245
:100F34000EADFF700D3007057F00120EF0AF0CAE42
:100F44000B22B4255FC2D5C204120EADFF24D0B467
:100F54000A00501A75F00A780930D50508B6FF0161
:100F640006C6A426F620D5047002D20380D924CF65
:100F7400B41A00EF5004C2E5D2040211DCD201809D
:100F8400C6D20080C0D20280BCD2D580BAD205803D
:100F9400B47F20120EDF2002077401B5090040F16E
:100FA400120EA4FF120EDF020F17D208D20680958C
:100FB400120EA4FB120EA4FA120EA4F94A4B7006E8
:100FC40079D37A127BFF20022EE509602A7E008EF7
:100FD40082758300120D5660060EEE650A70F0C22B
:100FE400D5EBC0E0EAC0E0E9C0E0EE12123CD0E08C
:100FF400F9D0E0FAD0E0FB120D3DFF60AAEBC0E0AF
:10100400EAC0E0E9C0E0120EDFD0E02401F9D0E04C
:101014003400FAD0E0FBE50A0460DCD50AD9808705
:10102400D20280A212121F60F7E50A700104120AAC
:10103400FBA90A600DE50A600914F50A1212C6EF4D
:1010440060F3EA30E702F404C3995077EAF4250A1E
:101054000430E701E404F50A800D12121F60C1EAAE
:10106400050A250A120AFBEA785AF230E701E42558
:101074000A04D50A042005011412123CE4C0E0124B
:1010840012C6785AE2601320E70714F2120EC780E2
:101094002204F2D0E014C0E07F00120EC7E50A601B
:1010A40007120EBE150A800B300503120EBED0E0E7
:1010B400020F17D0E00480C512121F60A0E50A04D5
:1010C400120AFB785AEAF2E50A20050260010424B8
:0C10D4000412123C74FF04C0E01212C6AB
:1010E000120EC7E50A2005026003120EBED0E0B55D
:1010F0000AE87F45120ED1785AE27F2B30E7047F51
:101100002DF404C0E0120EDFD0E075F00A84C0F0C8
:10111000120EC8D0E0120EC8020F177910800279A3
:1011200008C206C2088008D2D5790A8004790AC2AA
:10113000D5E50A047002F50AE4FAFDFEFF120EA4DA
:10114000FC7B08200113120EA4FD7B1030000A1254
:101150000EA4FE120EA4FF7B20EC3382D592D55054
:1011600013C3E43000069FFFE49EFEE42001039DCC
:10117000FDE49CFCE4CBF8C201EC700CCFCECDCCEE
:10118000E824F8F870F38017C3EF33FFEE33FEED79
:1011900033FDEC33FCEB33FB994002FB0FD8E9EB5A
:1011A000300105F8D0E0C448B201C0E00AEC4D4E71
:1011B0004F78207B0070C2EAB50A0040BCC0E01244
:1011C000123ED0F0D0E0200104C4C0E0C4B201C09F
:1011D000F0120EC8D0F0D5F0EB020F17120E7E0FF2
:1011E000B453111B580F854C0F8142111F4F11270B
:1011F000441127490F9A43112D55105E4610BC45E6
:1012000010284712F3500F892D0F8D2E0FB02B0F82
:1012100091230FAE2012DC2A0F494800000FA8E5E9
:101220000AB4FF03750A06120EA4FC120EA4FD12E6
:101230000EA4FE120EA4FF7853020B2A790AA2D53F
:10124000200314300509B910020404B9080104A2EE
:10125000D52006025001042002689202B509005010
:1012600034C0E07F203003197F30A202720672057D
:10127000500F121295C202C206C205C2087F30800A
:101280000F300503E9C0E0120EDF300503D0E0F9AE
:10129000D0E0B509CC3005177F30B9100C120EDF45
:1012A0007F583004077F788003B90803120EDF30BF
:1012B00002057F2D020EDF7F202008F87F2B2006FD
:1012C000F322920280CF7F00B4070050052453F828
:1012D000E2FF22286E756C6C2900D201120EA43038
:1012E00001F8C201780930D50108F6020F492D50E6
:1012F000434958120EA42403B405004001E490129F
:10130000EE93120ED0743A120ED0D2037509040275
:02131000111BAF
:100AB100E9D2E7C933E833F892D5EDD2E7CD33EC8B
:070AC10033FC5002B2D52204
:100AC800EC30E7100FBF000C0EBE00080DBD00048F
:100AD8000BEB6014A2D5EB13FCED92E7FD2274FF3B
:100AE800FCFDFEFF22E480F8A2D574FF13FC7D8094
:030AF800E480EFA8
:100AFB00F920E72824F950037907E4F42402FB18C2
:100B0B00DBFDE224FB5014E9600DE4F218E204F281
:0F0B1B00B40A08E4F2D9F57401F20A22C2D52215
:100B2A00ED33EC3392D5FA602AB4FF33EDC2E77B9A
:100B3A00FF60067A0B794FE4227A0B795820D504A4
:100B4A007A0B7953224E614E002B494E46002D49AD
:100B5A004E4600E47A08F208DAFC7B00740722E8C1
:100B6A00C0E0ECC0E0EDC0E0EEC0E0EFC0E0EA7546
:100B7A00F010A4CAABF075F04DA42BFBE435F0FCE1
:100B8A00EA2410FAEB34C5FBEC34D9FCEDC2E7FFDA
:100B9A0075F056A4F42411C5F0F434C58FF0A42AD4
:100BAA00E5F03BE43CF220E714120CFDD0E0FFD064
:100BBA00E0FED0E0FDD0E0FC120C308014F4041208
:100BCA000CFDD0E0FFD0E0FED0E0FDD0E0FC120941
:100BDA0036D0E0F8E2FAEDD2E7CD33EC332482FBEB
:100BEA00E4C3CF33CFCE33CECD33CD33DBF37B0764
:100BFA0075F00A846004F2081B0AE5F0F2088FF027
:100C0A00740AA4FFACF08EF0740AA42CFEACF05067
:100C1A00010C8DF0740AA42CFDE435F0F208DBDE39
:030C2A007407222A
:100C2D00020AF0EC5D046005E859047003020AE65F
:100C3D00120AB1580460F6EC4860F2EC7004FDFE47
:100C4D00FF22C860DB2481C85009C398600250069A
:100C5D00020AED9850CAF582E9294B4A7005AB821C
:100C6D00020ADC75F0007C1A7880C3EF9BEE9AEDDA
:100C7D0099400DC3EF9BFFEE9AFEED99FDE842F012
:100C8D00DC23ACF0D0E0FFD0E0FED0E0FDAB822065
:100C9D00E7101BEB60BAEC2CFCEF33FFEE33FEEDEF
:100CAD0033FD020AC8E803F830E705C0F075F0001F
:100CBD00EF2FFFEE33FEED33FD40B830E7C280AAD3
:100CCD003F8000004120000042C80000447A00002F
:100CDD00461C400047C35000497424004B189680B1
:100CED004CBEBC205A0E1BCA6753C21C749DC5AEA8
:100CFD00FB60065407601C2323120D2BEB54386048
:100D0D0009120D17120D26120936ECF8EDF9EEFA4F
:100D1D00EFCB22EB120D2680F1543803241C900CDE
:100D2D00CDFE93FC0EEE93FD0EEE930ECE93FF22B1
:10160E00021312E493A3F8E493A34003F68001F2CD
:10161E0008DFF48029E493A3F85407240CC8C333DD
:10162E00C4540F4420C8834004F456800146F6DFAC
:10163E00E4800B0102040810204080901A26E47EFC
:10164E00019360BCA3FF543F30E509541FFEE493A1
:10165E00A360010ECF54C025E060A840B8E493A368
:10166E00FAE493A3F8E493A3C8C582C8CAC583CA93
:10167E00F0A3C8C582C8CAC583CADFE9DEE780BE4B
:011A2A0000BB
:100D3D00BB010689828A83E0225002E722BBFE02B4
:090D4D00E32289828A83E49322E7
:100D5600BB010CE58229F582E5833AF583E0225052
:100D660006E92582F8E622BBFE06E92582F8E2229C
:0D0D7600E58229F582E5833AF583E49322B6
:100D8300BB010689828A83F0225002F722BBFE014F
:020D9300F32249
:100D9500EF8DF0A4A8F0CF8CF0A428CE8DF0A42E72
:020DA500FE222C
:100DA700BC000BBE0029EF8DF084FFADF022E4CC30
:100DB700F875F008EF2FFFEE33FEEC33FCEE9DECF9
:100DC700984005FCEE9DFE0FD5F0E9E4CEFD22ED3F
:100DD700F8F5F0EE8420D21CFEADF075F008EF2F89
:100DE700FFED33FD4007985006D5F0F222C398FD7A
:050DF7000FD5F0EA2217
:100DFC00C2D5EC30E709B2D5E4C39DFDE49CFCEE12
:100E0C0030E715B2D5E4C39FFFE49EFE120DA7C3D5
:100E1C00E49DFDE49CFC8003120DA730D507C3E4D0
:060E2C009FFFE49EFE2280
:0E0E3200C3E49FFFE49EFEE49DFDE49CFC22D1
:0C0E4000ECF208EDF208EEF208EFF222EE
:100E4C00D083D082E493F208740193F20874029375
:090E5C00F208740393F2740473AC
:100E6500FAE2FB0808E2F925F0F218E2CA3AF222A2
:090E7500EBF208EAF208E9F222AE
:100E7E00D083D082F8E4937012740193700DA3A303
:100E8E0093F8740193F5828883E473740293686017
:060E9E00EFA3A3A380DF17
:1018D700EFB40A07740D1218E2740A309811A89928
:1018E700B8130CC2983098FDA899C298B811F63071
:0718F70099FDC299F5992249
:00000001FF
